:100000000C9462000C946C040C9445040C948A00CB
:100010000C948A000C948A000C948A000C948A0038
:100020000C948A000C9493040C948A000C948A001B
:100030000C948A000C948A000C948A000C948A0018
:100040000C94FB030C948A000C94A5020C947F0280
:100050000C948A000C948A000C948A000C948A00F8
:100060000C948A000C948A000000000024002700F1
:100070002A0000000000250028002B0000000000DE
:1000800023002600290004040404040404040202DA
:100090000202020203030303030301020408102007
:1000A0004080010204081020010204081020000012
:1000B0000008000201000003040700000000000027
:1000C0000000430D11241FBECFEFD8E0DEBFCDBF2F
:1000D00016E0A0E0B1E0E6E4FCE102C005900D927C
:1000E000A03AB107D9F727E0A0EAB6E001C01D9217
:1000F000AB3BB207E1F710E0C2E6D0E004C02197C5
:10010000FE010E94BB0DC136D107C9F70E94FB0753
:100110000C94210E0C9400000895FC01918D828DA9
:10012000981761F0828DDF01A80FB11D5D968C914B
:10013000928D9F5F9F73928F90E008958FEF9FEF56
:100140000895FC01918D828D981731F0828DE80F12
:10015000F11D858D90E008958FEF9FEF0895FC01CC
:10016000918D228D892F90E0805C9F4F821B910999
:100170008F73992708958EEC96E00E94AF0021E0DE
:10018000892B09F420E0822F0895FC01848DDF0182
:10019000A80FB11DA35ABF4F2C91848D90E00196FA
:1001A0008F739927848FA689B7892C93A089B189E9
:1001B0008C9180648C93938D848D981306C00288F3
:1001C000F389E02D80818F7D80830895EF92FF92E7
:1001D0000F931F93CF93DF93EC0181E0888F9B8D6A
:1001E0008C8D981305C0E889F989808185FD24C02C
:1001F000F62E0B8D10E00F5F1F4F0F731127E02EAF
:100200008C8DE8120CC00FB607FCFACFE889F9898B
:10021000808185FFF5CFCE010E94C500F1CF8B8D87
:10022000FE01E80FF11DE35AFF4FF0820B8FEA89C0
:10023000FB898081806207C0EE89FF896083E8893D
:10024000F98980818064808381E090E0DF91CF91A3
:100250001F910F91FF90EF900895CF93DF93EC01E2
:10026000888D8823C9F0EA89FB89808185FD05C0D6
:10027000A889B9898C9186FD0FC00FB607FCF5CF10
:10028000808185FFF2CFA889B9898C9185FFEDCF58
:10029000CE010E94C500E7CFDF91CF91089580E0A5
:1002A00090E0892B29F00E94BB0081110C94000082
:1002B00008953FB7F8948091B8069091B906A0913F
:1002C000BA06B091BB0626B5A89B05C02F3F19F012
:1002D0000196A11DB11D3FBFBA2FA92F982F8827C6
:1002E000820F911DA11DB11DBC01CD0142E0660F21
:1002F000771F881F991F4A95D1F708958F929F9273
:10030000AF92BF92CF92DF92EF92FF926B017C018E
:100310000E9459014B015C01C114D104E104F104B4
:10032000F1F00E945901DC01CB0188199909AA0951
:10033000BB09883E9340A105B10570F321E0C21AC4
:10034000D108E108F10888EE880E83E0981EA11C10
:10035000B11CC114D104E104F10419F7DDCFFF9001
:10036000EF90DF90CF90BF90AF909F908F900895C7
:100370008EEC96E00E94A100809729F48EEC96E026
:100380000E948D00F5CF08958EEC96E00E94AF009C
:10039000892B29F08EEC96E00E948D00F5CF089510
:1003A0008091C2069091C3062091C4063091C50683
:1003B000821B930B6091C0067091C1060E94930D41
:1003C0009B012F5F3F4F80E197E2B9010E94930D9F
:1003D0007093BD066093BC06629FC001639F900D41
:1003E000729F900D11249093A1068093A00608950A
:1003F00066E671E08EEC96E00E94E50764E271E04B
:100400008EEC96E00E94E5076CE371E08EEC96E0DE
:100410000E94F9078091C4069091C5060E94CF07FB
:1004200064E471E08EEC96E00E94F9078091C206C8
:100430009091C3060E94CF076CE471E08EEC96E0C9
:100440000E94F9078091C0069091C1060E94CF07D3
:100450008EEC96E00C942D01AF92BF92CF92DF927A
:10046000EF92FF920F931F93CF93DF931F92CDB71D
:10047000DEB75C017B018B016C0182E0C80ED11CF0
:10048000F80161918F01C50169830E94CF0D6981D7
:10049000681719F0C5010E94D70DFFEFAF1ABF0A08
:1004A000AC14BD0469F7C7010F90DF91CF911F9184
:1004B0000F91FF90EF90DF90CF90BF90AF90089595
:1004C0000F931F93CF93DF938C01EB010E94CF0D0D
:1004D0008883C80101960E94CF0D8983CE01DF91E8
:1004E000CF911F910F910895CF93C0E060E08C2FC2
:1004F0000E94FB05CF5FC430C9F7CF9108951F92CA
:100500000F920FB60F9211242F933F934F935F9347
:100510006F937F938F939F93AF93BF93EF93FF93CB
:100520008EEC96E00E94C500FF91EF91BF91AF91D4
:100530009F918F917F916F915F914F913F912F91FB
:100540000F900FBE0F901F9018951F920F920FB62D
:100550000F9211242F938F939F93EF93FF93E0912A
:10056000DE06F091DF068081E091E406F091E50679
:1005700082FD12C090818091E7068F5F8F7320917A
:10058000E806821751F0E091E706F0E0E253F94FF8
:10059000958F8093E70601C08081FF91EF919F9135
:1005A0008F912F910F900FBE0F901F901895833051
:1005B00081F028F4813099F08230A1F008958730DD
:1005C000A9F08830B9F08430D1F4809180008F7D1B
:1005D00003C0809180008F7780938000089584B558
:1005E0008F7702C084B58F7D84BD08958091B0005F
:1005F0008F7703C08091B0008F7D8093B000089505
:100600001F93CF93DF93282F30E0F901E255FF4F7E
:100610008491F901E656FF4FD491F901EA57FF4F53
:10062000C491CC23C9F0162F81110E94D702EC2F60
:10063000F0E0EE0FFF1FEE58FF4FA591B4918FB77A
:10064000F894111105C09C91ED2FE095E92302C0AB
:10065000EC91ED2BEC938FBFDF91CF911F9108951B
:10066000CF93DF9390E0FC01E656FF4F2491FC010D
:10067000EA57FF4F8491882361F190E0880F991F1A
:10068000FC01E859FF4FC591D491FC01EE58FF4F92
:10069000A591B491611109C09FB7F8948881209504
:1006A00082238883EC912E230BC0623061F49FB7C4
:1006B000F8943881822F809583238883EC912E2BA8
:1006C0002C939FBF06C08FB7F894E8812E2B288308
:1006D0008FBFDF91CF9108952FB7F8946091B40642
:1006E0007091B5068091B6069091B7062FBF089518
:1006F0001F93CF93DF93C091BE06D091BF0680E4D5
:1007000080937C0080917A00806480937A0080914D
:100710007A0086FDFCCF10917800809179000E94CC
:100720006C031C9F90011D9F300D1124620F731FDD
:10073000811D911D20E137E240E050E00E94E50D6F
:100740007093BF066093BE06DF91CF911F9108950D
:100750000F931F930E946C036093A6067093A706E5
:100760008093A8069093A9060091A2061091A30673
:100770002091A4063091A506DC01CB01801B910BD2
:10078000A20BB30B8C329140A105B10588F10E94F8
:100790006C036093A2067093A3068093A4069093C3
:1007A000A5060E9478036EEB76E086E090E00E945A
:1007B0002C028091BE069091BF066091BC0670919C
:1007C000BD060E94930D8091C0069091C106689F5E
:1007D0009001699F300D789F300D11248091C406DF
:1007E0009091C506820F931F1F910F910C942A06BA
:1007F0001F910F9108951F920F920FB60F9211241F
:100800002F933F938F939F93AF93BF938091B406A1
:100810009091B506A091B606B091B7063091B30697
:1008200023E0230F2D3720F40196A11DB11D05C033
:1008300026E8230F0296A11DB11D2093B3068093D5
:10084000B4069093B506A093B606B093B706809110
:10085000B8069091B906A091BA06B091BB06019670
:10086000A11DB11D8093B8069093B906A093BA0656
:10087000B093BB06BF91AF919F918F913F912F9104
:100880000F900FBE0F901F9018951F920F920FB6EA
:100890000F9211242F933F934F935F936F937F9306
:1008A0008F939F93AF93BF93EF93FF93E0910201D8
:1008B000F09103010995FF91EF91BF91AF919F9145
:1008C0008F917F916F915F914F913F912F910F90F9
:1008D0000FBE0F901F9018951F920F920FB60F9298
:1008E00011242F933F934F935F936F937F938F9335
:1008F0009F93AF93BF93EF93FF93E0910001F0912B
:1009000001010995FF91EF91BF91AF919F918F9157
:100910007F916F915F914F913F912F910F900FBEFB
:100920000F901F9018951F920F920FB60F921124DF
:100930002F933F934F935F936F937F938F939F93E7
:10094000AF93BF93EF93FF938091B1069091B2065E
:100950008093B2008091AD069091AE06A091AF0653
:10096000B091B0060196A11DB11D8093AD06909384
:10097000AE06A093AF06B093B0068091AD069091FD
:10098000AE06A091AF06B091B0068091AC06811181
:100990001AC081E08093AC068091AD069091AE06BE
:1009A000A091AF06B091B0068093AD069093AE06CD
:1009B000A093AF06B093B006E091AA06F091AB0603
:1009C00009951092AC06FF91EF91BF91AF919F9165
:1009D0008F917F916F915F914F913F912F910F90E8
:1009E0000FBE0F901F901895CF92DF92EF92FF925B
:1009F0000F931F93CF93DF936C017A018B01C0E0BB
:100A0000D0E0CE15DF0589F0D8016D918D01D601BA
:100A1000ED91FC910190F081E02DC6010995892BA3
:100A200011F47E0102C02196ECCFC701DF91CF9176
:100A30001F910F91FF90EF90DF90CF900895CF938B
:100A4000DF93C3EBD7E060E088810E94000360E0A1
:100A500089810E94000361E088810E94000361E0B7
:100A60008981DF91CF910C940003CF93DF93C3EB87
:100A7000D7E061E088810E94000361E089810E94E3
:100A8000000360E089810E94000360E08881DF91BB
:100A9000CF910C9400030F931F93CF93DF93D82F24
:100AA000C8E060E08091B3070E940003D0FF02C05D
:100AB00061E001C060E08091B4070E940003D59519
:100AC00061E08091B3070E940003C15051F760E0DC
:100AD0008091B3070E94000361E08091B4070E94F7
:100AE000000361E08091B3070E94000360E0809101
:100AF000B4070E94300383EC90E00197F1F7209156
:100B0000B40730E0F901E255FF4F8491F901E65650
:100B1000FF4FD491F901EA57FF4FC491CC2371F0F4
:100B200081110E94D702EC2FF0E0EE0FFF1FE45876
:100B3000FF4FA591B491EC91ED2369F461E08091B0
:100B4000B4070E94300360E08091B4070E94000364
:100B500000E010E002C001E010E0C3ECD0E0CE0104
:100B60000197F1F761E08091B4070E94300321976B
:100B7000F1F7C801DF91CF911F910F9108950F9365
:100B80001F930E946C036093D6067093D7068093E0
:100B9000D8069093D906E091CE06F091CF06008456
:100BA000F185E02D8EEC96E0099597FF1FC00E941D
:100BB0006C030091D6061091D7062091D80630918B
:100BC000D906DC01CB01801B910BA20BB30B00916A
:100BD000D2061091D3062091D4063091D506801705
:100BE0009107A207B307B8F28FEF9FEF1F910F9104
:100BF00008950E94C10DCF93DF93D82F8091B8073D
:100C0000811102C0C0E001C0C0E86F3739F0E62FA3
:100C1000660FFF0BEC5FFE4F9081C90F0E943505F8
:100C200084E40E944B050E941F050E9435058D2F0C
:100C3000806C0E944B058C2F0E944B050E941F0563
:100C40000E9435058091B7070E944B05DF91CF9137
:100C50000C941F05EF92FF920F931F93CF93DF9396
:100C6000EC01C03187E2D80708F078C08091B9075D
:100C70009091BA07C817D90709F470C0D093BA0782
:100C8000C093B907CA30D10534F46C2F83E00E94B9
:100C9000FB056FE713C00AE010E0CE01B8010E9427
:100CA000A70DC436D1059CF4EB01682F83E00E94A8
:100CB000FB05CE01B8010E94A70D682F82E00E94BB
:100CC000FB056FE781E00E94FB056FE73EC07B01FB
:100CD000682FC83E83E0D807B4F483E00E94FB0588
:100CE000C701B8010E94A70D682F82E00E94FB0592
:100CF000CE0164E670E00E94A70DCB01B8010E940E
:100D0000A70D682FDFCF83E00E94FB05C701B80164
:100D10000E94A70D682F82E00E94FB05CE0164E6C9
:100D200070E00E94A70DCB01B8010E94A70D682FAB
:100D300081E00E94FB05CE0168EE73E00E94A70DE2
:100D4000CB01B8010E94A70D682F80E0DF91CF9101
:100D50001F910F91FF90EF900C94FB05DF91CF91C5
:100D60001F910F91FF90EF900895EEECF6E0A089AF
:100D7000B18982E08C93A485B5851C92A685B78540
:100D80008FEC8C93108EA489B58986E08C93A28910
:100D9000B3898C9180618C93A289B3898C9188608E
:100DA0008C93A289B3898C9180688C930288F38993
:100DB000E02D80818F7D808308956FE780E00E9421
:100DC000FB056FE781E00E94FB056FE782E00E9470
:100DD000FB056FE783E00C94FB05E091CE06F091F4
:100DE000CF060190F081E02D682F8EEC96E00994FB
:100DF000FF920F931F93CF93DF9300D000D0CDB716
:100E0000DEB70E94BF05FC0197FD11C08D32910530
:100E100091F0C0970A9778F0E091CE06F091CF0656
:100E20000680F781E02D8EEC96E00995EACF60E030
:100E300070E0CB014CC020E030E0A901F12CE130A2
:100E4000F105F1F0ED32F105C9F0CF01C0970A9735
:100E5000B8F4AAE0B0E00E94070E8F01FF0F220B4A
:100E6000330BDC01CB01800F911FA21FB31F9C012C
:100E7000AD01205331094109510902C0FF24F39407
:100E8000E091CE06F091CF060680F781E02D8EEC42
:100E900096E029833A834B835C8309950E94BF05C2
:100EA000FC01C09729813A814B815C810A9738F215
:100EB000E130F10521F2FF2041F066277727CB01D1
:100EC000621B730B840B950B02C0CA01B9010F9012
:100ED0000F900F900F90DF91CF911F910F91FF9086
:100EE00008956115710579F0FB0101900020E9F783
:100EF0003197AF01461B570BDC01ED91FC9102804D
:100F0000F381E02D099480E090E008954F925F9284
:100F10006F927F92EF92FF920F931F93CF93DF9385
:100F2000CDB7DEB7A1970FB6F894DEBF0FBECDBF29
:100F30007C01FA01CB0119A2223008F42AE08E01CB
:100F40000F5D1F4F422E512C612C712CBF01A3014C
:100F500092010E94E50DF901CA01015011096A30A0
:100F600014F4605D01C0695CD8016C93232B242BC1
:100F7000252B61F7B801C7010E947107A1960FB632
:100F8000F894DEBF0FBECDBFDF91CF911F910F91BF
:100F9000FF90EF907F906F905F904F900895CF9368
:100FA000DF93AC0160E070E02AE08EEC96E00E94F6
:100FB0008607EC0164E671E08EEC96E00E94710712
:100FC0008C0F9D1FDF91CF9108950F931F93CF93A7
:100FD000DF93EC010E9471078C0164E671E0CE01A1
:100FE0000E947107800F911FDF91CF911F910F9188
:100FF00008950C947107CF93DF93CDB7DEB7669752
:101000000FB6F894DEBF0FBECDBF789484B5826072
:1010100084BD84B5816084BD85B5826085BD85B59C
:10102000816085BD80916E00816080936E0010921A
:101030008100809181008260809381008091810095
:101040008160809381008091800081608093800026
:101050008091B10084608093B1008091B000816084
:101060008093B00080917A00846080937A008091B0
:101070007A00826080937A0080917A008160809308
:101080007A0080917A00806880937A001092C10083
:101090001092AF071092B0071092B1071092B207EA
:1010A00010926D0710926E0710926F0710927007E2
:1010B0000E946C036B017C014B015C0188EB880E84
:1010C0008BE0981EA11CB11C0E946C036C157D0561
:1010D0008E059F0528F086169706A806B906A0F784
:1010E0008EEC96E09093AE078093AD070E94B50614
:1010F0000E946C0360936D0770936E0780936F0777
:101100009093700765E571E08091AD079091AE070F
:101110000E94F9070E946C036B017C014B015C018A
:101120009AE0890E911CA11CB11C0E946C036C15E5
:101130007D058E059F0528F086169706A806B90638
:10114000A0F781E0809381070E94B50662E082E00B
:101150000E94300388EA93E090930101809300019C
:10116000809169008C7F826080936900E89A0E9478
:10117000DD0680E48093B50780EC8093B6078FE8A6
:101180008093B7070E94DD060E94740264E670E057
:1011900080E090E00E947E0164EC76E080E090E0E8
:1011A0000E946002FC01808191819093C50680932A
:1011B000C40662EC76E082E090E00E946002FC01EE
:1011C000808191819093C3068093C20660EC76E0A3
:1011D00084E090E00E946002FC0180819181909304
:1011E000C1068093C0066EEB76E086E090E00E9438
:1011F0006002FC01808191819093BF068093BE06BE
:101200000E94D00180E090E00E942A0634EF432E35
:1012100055245394612C712CCE010B96998B888B9D
:101220008C5F8A8B0E946C03672B682B692B41F4BF
:101230000E946C03623071058105910508F410C1AC
:101240000E946C036093CA067093CB068093CC0611
:101250009093CD060091C6061091C7062091C8064E
:101260003091C906601771078207930740F46093B5
:10127000C6067093C7068093C8069093C90600916E
:10128000C6061091C7062091C8063091C9066B01A9
:101290007C01C01AD10AE20AF30A970186010A3FCB
:1012A00011052105310508F4DBC06093C606709373
:1012B000C7068093C8069093C9064092790750925A
:1012C0007A0760927B0770927C0710927D071092DC
:1012D0007E0710927F07109280078091710790918E
:1012E0007207A0917307B09174078093750790936C
:1012F0007607A0937707B09378070E946C036093FA
:1013000071077093720780937307909374070E941C
:101310006C0360936D0770936E0780936F079093D3
:1013200070070E946C034B015C0167E671E08091DD
:10133000AD079091AE070E94F9072AE041E050E026
:1013400060E070E08091AD079091AE070E94860743
:101350006EE671E08091AD079091AE070E94F907AB
:101360002AE0B501A4018091AD079091AE070E94DB
:10137000860760E771E08091AD079091AE070E940B
:10138000F9078091710790917207A0917307B0914E
:101390007407B501A401481B590B6A0B7B0B2AE0AB
:1013A0008091AD079091AE070E94860760E771E0DB
:1013B0008091AD079091AE070E94F90740917107A7
:1013C000509172076091730770917407809175074F
:1013D00090917607A0917707B0917807481B590B39
:1013E0006A0B7B0B2AE08091AD079091AE070E94BB
:1013F000860762E771E08091AD079091AE070E9489
:10140000F9070E946C03AB01BC012AE08091AD0793
:101410009091AE070E94860764E771E08091AD0766
:101420009091AE070E94E5070E946C036B017C015E
:101430004B015C0185E0880E911CA11CB11C0E942F
:101440006C036C157D058E059F05B0F50E946C033D
:10145000609371077093720780937307909374077A
:101460000E94C4018EEC96E00E94AF00892B39F4F3
:1014700068E873E180E090E00E947E01F3CF85E0B0
:10148000EFE9F1E0DE011B9601900D928A95E1F7FC
:101490008E01055F1F4F8EEC96E00E94AF00892BF6
:1014A00091F0CA88C01679F08EEC96E00E948D000B
:1014B000F80181938F01EFCF86169706A806B9062B
:1014C00008F0BDCFC3CF61E976E0CE010B960E9454
:1014D000C60D892B09F07AC2E8988CE890E09093C9
:1014E0000101809300010E94DD060E94740266E6FD
:1014F00071E08EEC96E00E94E5076BE771E08EEC00
:1015000096E00E94E5078EEC96E00E942D010E9475
:10151000C40166E671E08EEC96E00E94E50761E9A1
:1015200071E08EEC96E00E94F9078EEC96E00E9446
:10153000AF00892B39F464EF71E080E090E00E9405
:101540007E01F3CFE6E9F6E0DE0111968AE0019034
:101550000D928A95E1F78E010F5F1F4FD12C8EEC13
:1015600096E00E94AF00892B91F08EEC96E00E94ED
:10157000A100809761F0F9E0DF1649F0D3948EEC7A
:1015800096E00E948D00F80181938F01E8CF99E0E9
:10159000E92EDE1459F0E1E0F0E0EC0FFD1FED0D57
:1015A000F11D20E2C22EC082D394F1CF0E94B80177
:1015B000BE016F5F7F4F8EEC96E00E94F9076AE9EB
:1015C00071E0CE0101960E94C60D892B09F075C00D
:1015D00066E671E08EEC96E00E94E50764EA71E051
:1015E0008EEC96E00E94E50769ED71E08EEC96E0E6
:1015F0000E94E50760EE71E08EEC96E00E94E50740
:1016000060EF71E08EEC96E00E94E50769EF71E013
:101610008EEC96E00E94E5076BE172E08EEC96E0BE
:101620000E94E50766E372E08EEC96E00E94E50713
:101630006EE672E08EEC96E00E94E5076FE972E0DC
:101640008EEC96E00E94E50760ED72E08EEC96E08D
:101650000E94E50760E173E08EEC96E00E94E507EA
:101660006BE573E08EEC96E00E94E5076DEA73E0AF
:101670008EEC96E00E94E5076FEF73E08EEC96E04B
:101680000E94E50763E174E08EEC96E00E94E507B6
:1016900066E374E08EEC96E00E94E5076DE374E08B
:1016A0008EEC96E00E94E50764E574E08EEC96E02F
:1016B0000E94E5076BE974E022CF61EE74E0CE0191
:1016C00001960E94C60D892B09F4DFC06BEE74E011
:1016D000CE0101960E94C60D892B09F0D9C08EEC6F
:1016E00096E00E94AF00892B99F00E94F8066B01EA
:1016F0007C015B0180E20E94ED06B701A60166272E
:1017000077272AE08EEC96E00E948607912C06C08F
:101710009924939480E1A82E87E2B82E0E94B80104
:101720008EEC96E00E94AF00892B91F00E94F806A3
:101730006B017C018B0180E20E94ED06B701A601DE
:10174000662777272AE08EEC96E00E94860704C081
:101750009924939400E117E20E94B8018EEC96E080
:101760000E94AF00892BC1F00E94F806AB01BC01BA
:101770006A0180E24B8B5C8B6D8B7E8B0E94ED0649
:101780004B895C896D897E89662777272AE08EECF4
:1017900096E00E94860704C099249394C12CD12C12
:1017A00066E671E08EEC96E00E94E50731E0A01657
:1017B000B10608F430E033243394003187E218078F
:1017C00008F4312C22242394C114D10409F0212CD3
:1017D000C8018A199B09B6010E94930D882483943D
:1017E000892B09F4812C911008C0311106C03110E9
:1017F00004C0211002C0882081F165EF74E08EECF6
:1018000096E03B8B0E94E5073B89992019F06AE03E
:1018100075E01CC0332331F064E275E08EEC96E095
:101820000E94E507332031F06DE375E08EEC96E021
:101830000E94E507222031F06DE575E08EEC96E020
:101840000E94E507882031F06EE675E08EEC96E0A8
:101850000E94E50765E975E052CEB092C506A092F8
:10186000C4061093C3060093C206D092C106C0926C
:10187000C0060E94D00164EA75E08EEC96E00E94FA
:10188000E5078EEC96E00E942D010E94F8013FCE04
:1018900067EB75E0CE0101960E94C60D892B61F5BC
:1018A0008EEC96E00E94AF00892B89F00E94F8062A
:1018B0004B015C016B0180E20E94ED06C4010E94B5
:1018C000CF078114910409F084C010E001C011E039
:1018D00065EF74E08EEC96E00E94E507112319F0A5
:1018E0006AE075E002C061EC75E08EEC96E00E9463
:1018F000E50764ED75E003CE62E176E0CE01019686
:101900000E94C60D892B09F058C064EC76E080E097
:1019100090E00E942C0264E670E080E090E00E947B
:101920007E0162EC76E082E090E00E942C0264E6A8
:1019300070E080E090E00E947E0160EC76E084E060
:1019400090E00E942C0264E670E080E090E00E944B
:101950007E016EEB76E086E090E00E942C0266E667
:1019600071E08EEC96E00E94E5076CE176E08EEC8B
:1019700096E00E94E5078EEC96E00E942D010E9401
:10198000DD0688EA93E09093010180930001809145
:1019900069008C7F826080936900E89A6BE676E04C
:1019A0008EEC96E00E94E5078EEC96E00E942D01F9
:1019B00080E090E00E942A0609C066E671E08EECA5
:1019C00096E00E94E50763E376E099CD0E944F011F
:1019D00029CC01E010E00E9478038091BE0690912E
:1019E000BF066091BC067091BD060E94930D809168
:1019F000C0069091C106689FA001699F500D789F15
:101A0000500D11248091C4069091C506480F591FAE
:101A1000052E000C660B770B77FF12C08DE24B8B07
:101A20005C8B6D8B7E8B0E94ED064B895C896D898A
:101A30007E8970956095509541955F4F6F4F7F4FB0
:101A40002AE08EEC96E00E94860764E671E08EEC58
:101A500096E00E9471070F5F1F4FC016D10608F075
:101A6000BACF68EE75E08EEC96E00E94F907B501FA
:101A7000A401662777272AE08EEC96E00E9486076D
:101A800060E076E03CCDCF93DF93EEECF6E013829E
:101A9000128288EE93E0A0E0B0E084839583A68371
:101AA000B78388E191E09183808385EC90E095870E
:101AB000848784EC90E09787868780EC90E0918B18
:101AC000808B81EC90E0938B828B82EC90E0958B05
:101AD000848B86EC90E0978B868B118E128E138E02
:101AE000148EEBE6F7E016821782108611861286B6
:101AF00013861486158616861786108A118A128A0E
:101B0000138A148A158AC3EBD7E084E0888386E0C1
:101B1000898361E084E00E94300361E08981DF9184
:101B2000CF910C943003AA1BBB1B51E107C0AA1F25
:101B3000BB1FA617B70710F0A61BB70B881F991F6E
:101B40005A95A9F780959095BC01CD01089597FB12
:101B5000072E16F4009407D077FD09D00E94930D4C
:101B600007FC05D03EF4909581959F4F08957095A0
:101B700061957F4F0895EE0FFF1F0590F491E02DC2
:101B8000099481E090E0F8940C94210EFB01DC01B3
:101B90008D91019080190110D9F3990B0895F9994D
:101BA000FECF92BD81BDF89A992780B50895262F62
:101BB000F999FECF1FBA92BD81BD20BD0FB6F89432
:101BC000FA9AF99A0FBE01960895A1E21A2EAA1B5D
:101BD000BB1BFD010DC0AA1FBB1FEE1FFF1FA217DD
:101BE000B307E407F50720F0A21BB30BE40BF50BDA
:101BF000661F771F881F991F1A9469F76095709563
:101C0000809590959B01AC01BD01CF0108950E9484
:101C1000120EA59F900DB49F900DA49F800D911D55
:101C200011240895A29FB001B39FC001A39F700D1E
:101C3000811D1124911DB29F700D811D1124911DD4
:061C40000895F894FFCFA7
:101C46008C008C003F065B4F666D7D077F6F777C4F
:101C5600395E797100000000E600F404AF008D00E3
:101C6600A1002D0143757272656E7420636F6E66F6
:101C7600696775726174696F6E733A002D2D6D69AF
:101C86006E3A20002D2D6D61783A20002D2D73744B
:101C960065703A2000564D4450565F317C315F5690
:101CA6004D4450560D0A00564D4450455F003A3299
:101CB6003A007C005F564D44504500436F6E736F8B
:101CC6006C6520696E697469616C697365642E2040
:101CD60000436F6E736F6C653E0068656C700A201A
:101CE6002020200054686520666F6C6C6F77696EE3
:101CF6006720636F6D6D616E64732061726520612C
:101D060076616C6961626C6520696E207468652015
:101D1600636F6E736F6C653A002D2D68656C70008D
:101D26002D2D2D2D53686F772068656C702E200041
:101D36002D2D636F6E666967002D2D2D2D53686FEF
:101D4600772063757272656E7420636F6E6669675D
:101D560075726174696F6E732E20002D2D73657414
:101D66007570205B6D696E5D205B6D61785D205BD3
:101D7600737465705D002D2D2D2D5365747570205F
:101D860074686520636F6E66696775726174696FE2
:101D96006E73207769746820666F6C6C6F77696EF6
:101DA6006720706172616D65746572733A002D2DDE
:101DB6002D2D2D2D6D696E3A746865206D696E69DD
:101DC6006D756D2076616C7565206F662067656E32
:101DD600657261746564206E756D62657273002D3F
:101DE6002D2D2D2D2D6D61783A746865206D6178E5
:101DF600696D756D2076616C7565206F6620676507
:101E06006E657261746564206E756D6265727300CD
:101E16002D2D2D2D2D2D737465703A746865206DEA
:101E2600696E696D756D20646966666572656E6357
:101E360065206265747765656E2074776F206765C7
:101E46006E657261746564206E756D62657273008D
:101E56002D2D2D2D2D2D506C65617365206265200D
:101E66006177617265207468617420616C6C2066AC
:101E76006F757220706172616D6574657273206D25
:101E860075737420626520706F7369746976652056
:101E9600696E7465676572732E20002D2D2D2D2DAC
:101EA6002D54686520706172616D6574657273206A
:101EB60077696C6C204E4F5420626520736176659D
:101EC6006420696E746F20454550524F4D20756EE3
:101ED60074696C20636F6D6D616E6420226578692C
:101EE600742220697320757365642E20002D2D2DB4
:101EF6002D2D2D2D2D5468697320666561747572BC
:101F060065206D65616E7320746F206D696E696DF5
:101F16006973652074686520757365206F66204552
:101F26004550524F4D20616E64206C656E67746833
:101F3600656E206974732075736167652E20002DA8
:101F46002D67656E6572617465205B616D6F756E78
:101F5600745D002D2D2D2D47656E657261746520AB
:101F66006120736572696573206F66206E756D6298
:101F76006572732E20002D2D65786974002D2D2D28
:101F86002D457869742074686520636F6E736F6C75
:101F9600652E20002D2D2D2D2D2D5468697320635F
:101FA6006F6D6D616E642077696C6C20616C736F08
:101FB60020736176652063757272656E7420636F37
:101FC6006E66696775726174696F6E7320696E7487
:101FD6006F20454550524F4D2E20002D2D2D2D2D75
:101FE6002D536572696F75732069737375657320F8
:101FF6006D6179206F636375722069662064697309
:10200600636F6E6E656374656420776974686F7557
:1020160074207468697320636F6D6D616E642E2021
:1020260000636F6E6669670A2020007365747570B9
:102036002020202000496E76616C696420706172F0
:10204600616D65746572733A20002D2D4E6F742094
:10205600656E6F75676820706172616D6574657213
:10206600732E20002D2D4D696E20616E64206D61EA
:10207600782072657665727365642E20002D2D4D6D
:10208600696E20616E642F6F72206D6178206F75A6
:1020960074206F662072616E67652E20002D2D49B3
:1020A6006E76616C696420737465702E20002D2D28
:1020B600284D61782D6D696E292063616E27742025
:1020C6006265206469766964656420627920737448
:1020D60065702E20005365747570206661696C65A5
:1020E600642E200053657475702073756363657381
:1020F6007366756C2E200067656E65726174652067
:10210600002D2D496E76616C696420616D6F756E68
:10211600742E200047656E65726174696F6E206665
:1021260061696C65642E200053756363657373661D
:10213600756C6C792067656E6572617465642000E4
:102146002072616E646F6D206E756D626572732E9E
:102156002000657869740A2020202000436F6E668F
:10216600696775726174696F6E73207361766564F1
:102176002E2000556E6B6E6F776E20636F6D6D61EE
:102186006E642E20456E746572202268656C70221E
:1021960020666F72206675727468657220696E6655
:1021A6006F726D6174696F6E2E2000436F6E736F70
:1021B6006C6520636C6F7365642E205573652022F1
:1021C600636D642220746F20726563616C6C2E20CF
:1021D60000636D640A00202020202020202020009B
:00000001FF
